{
  "transactions": [
    {
      "hash": "0x05b3f413069ae27b84555981c7604372b0385eeec8970df21c6e0ec3a1124500",
      "transactionType": "CALL",
      "contractName": null,
      "contractAddress": "0x29e5732ac62254d9b92a1c7d3f38ebfa8809b57d",
      "function": "mint(address,uint256)",
      "arguments": [
        "0xE80A81360608C1342e66743F70a00f75d792Eb93",
        "5000000000000000000000"
      ],
      "transaction": {
        "from": "0xe80a81360608c1342e66743f70a00f75d792eb93",
        "to": "0x29e5732ac62254d9b92a1c7d3f38ebfa8809b57d",
        "gas": "0x1745d",
        "value": "0x0",
        "input": "0x40c10f19000000000000000000000000e80a81360608c1342e66743f70a00f75d792eb9300000000000000000000000000000000000000000000010f0cf064dd59200000",
        "nonce": "0x32",
        "chainId": "0xaa36a7"
      },
      "additionalContracts": [],
      "isFixedGasLimit": false
    },
    {
      "hash": "0xcf59012ea77eaa26ed3a643ba168f911e68e8e554f12c150ac4a4698ae65d50a",
      "transactionType": "CALL",
      "contractName": null,
      "contractAddress": "0x29e5732ac62254d9b92a1c7d3f38ebfa8809b57d",
      "function": "approve(address,uint256)",
      "arguments": [
        "0xE8D78859B61AF6CEd5318044bAd0E265f1D1CE8E",
        "500000000000000000000"
      ],
      "transaction": {
        "from": "0xe80a81360608c1342e66743f70a00f75d792eb93",
        "to": "0x29e5732ac62254d9b92a1c7d3f38ebfa8809b57d",
        "gas": "0x10c4a",
        "value": "0x0",
        "input": "0x095ea7b3000000000000000000000000e8d78859b61af6ced5318044bad0e265f1d1ce8e00000000000000000000000000000000000000000000001b1ae4d6e2ef500000",
        "nonce": "0x33",
        "chainId": "0xaa36a7"
      },
      "additionalContracts": [],
      "isFixedGasLimit": false
    },
    {
      "hash": "0x66c2f0910c21a7aa9f8e580cc51a594548f5106d1a02c268ea92af8d56aff579",
      "transactionType": "CALL",
      "contractName": null,
      "contractAddress": "0xe8d78859b61af6ced5318044bad0e265f1d1ce8e",
      "function": "stake(uint256)",
      "arguments": [
        "500000000000000000000"
      ],
      "transaction": {
        "from": "0xe80a81360608c1342e66743f70a00f75d792eb93",
        "to": "0xe8d78859b61af6ced5318044bad0e265f1d1ce8e",
        "gas": "0x1dde3",
        "value": "0x0",
        "input": "0xa694fc3a00000000000000000000000000000000000000000000001b1ae4d6e2ef500000",
        "nonce": "0x34",
        "chainId": "0xaa36a7"
      },
      "additionalContracts": [],
      "isFixedGasLimit": false
    },
    {
      "hash": "0xf61ecbebff8ec3a582a2755f08e93ef94fefcc92e69493df32583bf19d00a8b4",
      "transactionType": "CALL",
      "contractName": null,
      "contractAddress": "0x481e650a3e6617c8e387e2e9229e725be242bd3f",
      "function": "registerTrader(string)",
      "arguments": [
        "Demo Alpha"
      ],
      "transaction": {
        "from": "0xe80a81360608c1342e66743f70a00f75d792eb93",
        "to": "0x481e650a3e6617c8e387e2e9229e725be242bd3f",
        "gas": "0x2e010",
        "value": "0x0",
        "input": "0x8dc5045d0000000000000000000000000000000000000000000000000000000000000020000000000000000000000000000000000000000000000000000000000000000a44656d6f20416c70686100000000000000000000000000000000000000000000",
        "nonce": "0x35",
        "chainId": "0xaa36a7"
      },
      "additionalContracts": [],
      "isFixedGasLimit": false
    },
    {
      "hash": "0xd4eb05d68975db28e9b44f931b3889eab07eba7d5ee5b0d17f01822586b05180",
      "transactionType": "CALL",
      "contractName": null,
      "contractAddress": "0x481e650a3e6617c8e387e2e9229e725be242bd3f",
      "function": "publishStrategy((bytes32,uint256,bool,uint256)[])",
      "arguments": [
        "[(0x6587d61b59ac1e9c9f12c71f220fb1b1740d054e81277d4466a0d348e0e266e1, 5000, true, 2), (0x83e22e1d95f2093dd401ec5cba75bcd950cd90282356f086011849e4fbaad8a9, 3000, false, 1), (0xeed17252f75eebef59a2839f0991464677fec970326e35128ddaf7f3acfb7220, 2000, true, 1)]"
      ],
      "transaction": {
        "from": "0xe80a81360608c1342e66743f70a00f75d792eb93",
        "to": "0x481e650a3e6617c8e387e2e9229e725be242bd3f",
        "gas": "0x7ea92",
        "value": "0x0",
        "input": "0x9a5ed316000000000000000000000000000000000000000000000000000000000000002000000000000000000000000000000000000000000000000000000000000000036587d61b59ac1e9c9f12c71f220fb1b1740d054e81277d4466a0d348e0e266e100000000000000000000000000000000000000000000000000000000000013880000000000000000000000000000000000000000000000000000000000000001000000000000000000000000000000000000000000000000000000000000000283e22e1d95f2093dd401ec5cba75bcd950cd90282356f086011849e4fbaad8a90000000000000000000000000000000000000000000000000000000000000bb800000000000000000000000000000000000000000000000000000000000000000000000000000000000000000000000000000000000000000000000000000001eed17252f75eebef59a2839f0991464677fec970326e35128ddaf7f3acfb722000000000000000000000000000000000000000000000000000000000000007d000000000000000000000000000000000000000000000000000000000000000010000000000000000000000000000000000000000000000000000000000000001",
        "nonce": "0x36",
        "chainId": "0xaa36a7"
      },
      "additionalContracts": [],
      "isFixedGasLimit": false
    },
    {
      "hash": "0x1ce5c0435f76f0f515c72f739fcb5a9307e125c362d4b3837c69bc65fb2b9eb3",
      "transactionType": "CALL",
      "contractName": null,
      "contractAddress": "0x29e5732ac62254d9b92a1c7d3f38ebfa8809b57d",
      "function": "approve(address,uint256)",
      "arguments": [
        "0x042A4e1F9750CE76fb96F063acB40a4f813C0737",
        "500000000000000000000"
      ],
      "transaction": {
        "from": "0xe80a81360608c1342e66743f70a00f75d792eb93",
        "to": "0x29e5732ac62254d9b92a1c7d3f38ebfa8809b57d",
        "gas": "0x10c4a",
        "value": "0x0",
        "input": "0x095ea7b3000000000000000000000000042a4e1f9750ce76fb96f063acb40a4f813c073700000000000000000000000000000000000000000000001b1ae4d6e2ef500000",
        "nonce": "0x37",
        "chainId": "0xaa36a7"
      },
      "additionalContracts": [],
      "isFixedGasLimit": false
    },
    {
      "hash": "0xf646a00fea00c61d524ea5ab78726d602042e92e613ac1a1c31b94d7d933c8de",
      "transactionType": "CALL",
      "contractName": null,
      "contractAddress": "0x042a4e1f9750ce76fb96f063acb40a4f813c0737",
      "function": "followTrader(address,uint256)",
      "arguments": [
        "0xE80A81360608C1342e66743F70a00f75d792Eb93",
        "500000000000000000000"
      ],
      "transaction": {
        "from": "0xe80a81360608c1342e66743f70a00f75d792eb93",
        "to": "0x042a4e1f9750ce76fb96f063acb40a4f813c0737",
        "gas": "0x1a0cbd",
        "value": "0x0",
        "input": "0x70d39944000000000000000000000000e80a81360608c1342e66743f70a00f75d792eb9300000000000000000000000000000000000000000000001b1ae4d6e2ef500000",
        "nonce": "0x38",
        "chainId": "0xaa36a7"
      },
      "additionalContracts": [],
      "isFixedGasLimit": false
    }
  ],
  "receipts": [],
  "libraries": [],
  "pending": [],
  "returns": {},
  "timestamp": 1778463060406,
  "chain": 11155111,
  "commit": "689cf36"
}